{
  "contractName": "Voting",
  "abi": [
    {
      "anonymous": false,
      "inputs": [
        {
          "indexed": true,
          "internalType": "address",
          "name": "previousOwner",
          "type": "address"
        },
        {
          "indexed": true,
          "internalType": "address",
          "name": "newOwner",
          "type": "address"
        }
      ],
      "name": "OwnershipTransferred",
      "type": "event"
    },
    {
      "anonymous": false,
      "inputs": [
        {
          "indexed": false,
          "internalType": "uint256",
          "name": "proposalId",
          "type": "uint256"
        }
      ],
      "name": "ProposalRegistered",
      "type": "event"
    },
    {
      "anonymous": false,
      "inputs": [],
      "name": "ProposalsRegistrationEnded",
      "type": "event"
    },
    {
      "anonymous": false,
      "inputs": [],
      "name": "ProposalsRegistrationStarted",
      "type": "event"
    },
    {
      "anonymous": false,
      "inputs": [
        {
          "indexed": false,
          "internalType": "address",
          "name": "voter",
          "type": "address"
        },
        {
          "indexed": false,
          "internalType": "uint256",
          "name": "proposalId",
          "type": "uint256"
        }
      ],
      "name": "Voted",
      "type": "event"
    },
    {
      "anonymous": false,
      "inputs": [
        {
          "indexed": false,
          "internalType": "address",
          "name": "voterAddress",
          "type": "address"
        }
      ],
      "name": "VoterRegistered",
      "type": "event"
    },
    {
      "anonymous": false,
      "inputs": [],
      "name": "VotesTallied",
      "type": "event"
    },
    {
      "anonymous": false,
      "inputs": [],
      "name": "VotingSessionEnded",
      "type": "event"
    },
    {
      "anonymous": false,
      "inputs": [],
      "name": "VotingSessionStarted",
      "type": "event"
    },
    {
      "anonymous": false,
      "inputs": [
        {
          "indexed": false,
          "internalType": "enum Voting.WorkflowStatus",
          "name": "previousStatus",
          "type": "uint8"
        },
        {
          "indexed": false,
          "internalType": "enum Voting.WorkflowStatus",
          "name": "newStatus",
          "type": "uint8"
        }
      ],
      "name": "WorkflowStatusChange",
      "type": "event"
    },
    {
      "inputs": [],
      "name": "nameOfVote",
      "outputs": [
        {
          "internalType": "string",
          "name": "",
          "type": "string"
        }
      ],
      "stateMutability": "view",
      "type": "function"
    },
    {
      "inputs": [],
      "name": "owner",
      "outputs": [
        {
          "internalType": "address",
          "name": "",
          "type": "address"
        }
      ],
      "stateMutability": "view",
      "type": "function"
    },
    {
      "inputs": [],
      "name": "renounceOwnership",
      "outputs": [],
      "stateMutability": "nonpayable",
      "type": "function"
    },
    {
      "inputs": [
        {
          "internalType": "address",
          "name": "newOwner",
          "type": "address"
        }
      ],
      "name": "transferOwnership",
      "outputs": [],
      "stateMutability": "nonpayable",
      "type": "function"
    },
    {
      "inputs": [
        {
          "internalType": "address",
          "name": "",
          "type": "address"
        }
      ],
      "name": "voters",
      "outputs": [
        {
          "internalType": "bool",
          "name": "isRegistered",
          "type": "bool"
        },
        {
          "internalType": "bool",
          "name": "hasProposed",
          "type": "bool"
        },
        {
          "internalType": "bool",
          "name": "hasVoted",
          "type": "bool"
        },
        {
          "internalType": "uint256",
          "name": "votedProposalId",
          "type": "uint256"
        }
      ],
      "stateMutability": "view",
      "type": "function"
    },
    {
      "inputs": [],
      "name": "winningProposalId",
      "outputs": [
        {
          "internalType": "uint256",
          "name": "",
          "type": "uint256"
        }
      ],
      "stateMutability": "view",
      "type": "function"
    },
    {
      "inputs": [
        {
          "internalType": "address",
          "name": "_address",
          "type": "address"
        }
      ],
      "name": "addToWhiteList",
      "outputs": [],
      "stateMutability": "nonpayable",
      "type": "function"
    },
    {
      "inputs": [
        {
          "internalType": "string",
          "name": "_nameOfVote",
          "type": "string"
        }
      ],
      "name": "startProposals",
      "outputs": [],
      "stateMutability": "nonpayable",
      "type": "function"
    },
    {
      "inputs": [
        {
          "internalType": "uint256",
          "name": "_endofProposals",
          "type": "uint256"
        }
      ],
      "name": "endProposals",
      "outputs": [],
      "stateMutability": "nonpayable",
      "type": "function"
    },
    {
      "inputs": [],
      "name": "getState",
      "outputs": [
        {
          "internalType": "enum Voting.WorkflowStatus",
          "name": "",
          "type": "uint8"
        }
      ],
      "stateMutability": "view",
      "type": "function"
    },
    {
      "inputs": [
        {
          "internalType": "string",
          "name": "_description",
          "type": "string"
        }
      ],
      "name": "proposals",
      "outputs": [],
      "stateMutability": "nonpayable",
      "type": "function"
    },
    {
      "inputs": [],
      "name": "startVoting",
      "outputs": [],
      "stateMutability": "nonpayable",
      "type": "function"
    },
    {
      "inputs": [
        {
          "internalType": "uint256",
          "name": "_timeToStopVotes",
          "type": "uint256"
        }
      ],
      "name": "stopVotes",
      "outputs": [],
      "stateMutability": "nonpayable",
      "type": "function"
    },
    {
      "inputs": [
        {
          "internalType": "uint256",
          "name": "_proposalNumber",
          "type": "uint256"
        }
      ],
      "name": "votingTimeBaby",
      "outputs": [],
      "stateMutability": "nonpayable",
      "type": "function"
    },
    {
      "inputs": [],
      "name": "getProposals",
      "outputs": [
        {
          "components": [
            {
              "internalType": "string",
              "name": "description",
              "type": "string"
            },
            {
              "internalType": "uint256",
              "name": "proposalId",
              "type": "uint256"
            },
            {
              "internalType": "uint256",
              "name": "voteCount",
              "type": "uint256"
            }
          ],
          "internalType": "struct Voting.Proposal[]",
          "name": "",
          "type": "tuple[]"
        }
      ],
      "stateMutability": "view",
      "type": "function"
    },
    {
      "inputs": [],
      "name": "winningProposal",
      "outputs": [],
      "stateMutability": "nonpayable",
      "type": "function"
    },
    {
      "inputs": [],
      "name": "showWinner",
      "outputs": [
        {
          "internalType": "uint256",
          "name": "",
          "type": "uint256"
        }
      ],
      "stateMutability": "view",
      "type": "function"
    }
  ],
  "bytecode": "0x608060405234801561001057600080fd5b5060006100216100c460201b60201c565b9050806000806101000a81548173ffffffffffffffffffffffffffffffffffffffff021916908373ffffffffffffffffffffffffffffffffffffffff1602179055508073ffffffffffffffffffffffffffffffffffffffff16600073ffffffffffffffffffffffffffffffffffffffff167f8be0079c531659141344cd1fd0a4f28419497f9722a3daafe3b4186f6b6457e060405160405180910390a3506100cc565b600033905090565b612709806100db6000396000f3fe608060405234801561001057600080fd5b506004361061010b5760003560e01c80638da5cb5b116100a2578063b7e0326411610071578063b7e0326414610249578063c64963c514610267578063f2fde38b14610285578063fd46dbac146102a1578063ffa0d2a4146102bd5761010b565b80638da5cb5b146101c05780639ab2d97c146101de5780639fde02ce146101fa578063a3ec138d146102165761010b565b806347ee0394116100de57806347ee039414610172578063609ff1bd1461018e57806362564c4814610198578063715018a6146101b65761010b565b80630edc6ef3146101105780631865c57d1461012c5780631ec6b60a1461014a57806335a61d5d14610154575b600080fd5b61012a600480360381019061012591906118be565b6102d9565b005b610134610443565b6040516101419190611d3c565b60405180910390f35b61015261045a565b005b61015c610630565b6040516101699190611d80565b60405180910390f35b61018c60048036038101906101879190611891565b6106be565b005b610196610865565b005b6101a0610a37565b6040516101ad9190611cd5565b60405180910390f35b6101be610b3c565b005b6101c8610c76565b6040516101d59190611c91565b60405180910390f35b6101f860048036038101906101f39190611907565b610c9f565b005b610214600480360381019061020f9190611907565b610e04565b005b610230600480360381019061022b9190611891565b611113565b6040516102409493929190611cf7565b60405180910390f35b61025161116a565b60405161025e9190611f42565b60405180910390f35b61026f6111b3565b60405161027c9190611f42565b60405180910390f35b61029f600480360381019061029a9190611891565b6111b9565b005b6102bb60048036038101906102b69190611907565b611362565b005b6102d760048036038101906102d291906118be565b6114fd565b005b6102e161174c565b73ffffffffffffffffffffffffffffffffffffffff166102ff610c76565b73ffffffffffffffffffffffffffffffffffffffff1614610355576040517f08c379a000000000000000000000000000000000000000000000000000000000815260040161034c90611ea2565b60405180910390fd5b60006005811115610369576103686121f9565b5b600860009054906101000a900460ff16600581111561038b5761038a6121f9565b5b146103cb576040517f08c379a00000000000000000000000000000000000000000000000000000000081526004016103c290611ec2565b60405180910390fd5b80600590805190602001906103e1929190611754565b50426001819055506001600860006101000a81548160ff0219169083600581111561040f5761040e6121f9565b5b02179055507f344c25562921d075a298d34b6dd1fd00d36ff293974539dfd4a8c625d9f0064c60405160405180910390a150565b6000600860009054906101000a900460ff16905090565b61046261174c565b73ffffffffffffffffffffffffffffffffffffffff16610480610c76565b73ffffffffffffffffffffffffffffffffffffffff16146104d6576040517f08c379a00000000000000000000000000000000000000000000000000000000081526004016104cd90611ea2565b60405180910390fd5b600260058111156104ea576104e96121f9565b5b600860009054906101000a900460ff16600581111561050c5761050b6121f9565b5b1461054c576040517f08c379a000000000000000000000000000000000000000000000000000000000815260040161054390611f02565b60405180910390fd5b60016007805490501015610595576040517f08c379a000000000000000000000000000000000000000000000000000000000815260040161058c90611ee2565b60405180910390fd5b426003819055506003600860006101000a81548160ff021916908360058111156105c2576105c16121f9565b5b02179055507f1b8e19a458c1bcd88553332c518cc5c4e2d5793e712ee766d4f1c14f672ef1f560405160405180910390a17f0a97a4ee45751e2abf3e4fc8946939630b11b371ea8ae39ccdc3056e98f5cc3f60026003604051610626929190611d57565b60405180910390a1565b6005805461063d9061211e565b80601f01602080910402602001604051908101604052809291908181526020018280546106699061211e565b80156106b65780601f1061068b576101008083540402835291602001916106b6565b820191906000526020600020905b81548152906001019060200180831161069957829003601f168201915b505050505081565b6106c661174c565b73ffffffffffffffffffffffffffffffffffffffff166106e4610c76565b73ffffffffffffffffffffffffffffffffffffffff161461073a576040517f08c379a000000000000000000000000000000000000000000000000000000000815260040161073190611ea2565b60405180910390fd5b60001515600960008373ffffffffffffffffffffffffffffffffffffffff1673ffffffffffffffffffffffffffffffffffffffff16815260200190815260200160002060000160009054906101000a900460ff161515146107d0576040517f08c379a00000000000000000000000000000000000000000000000000000000081526004016107c790611f22565b60405180910390fd5b6001600960008373ffffffffffffffffffffffffffffffffffffffff1673ffffffffffffffffffffffffffffffffffffffff16815260200190815260200160002060000160006101000a81548160ff0219169083151502179055507fb6be2187d059cc2a55fe29e0e503b566e1e0f8c8780096e185429350acffd3dd8160405161085a9190611c91565b60405180910390a150565b61086d61174c565b73ffffffffffffffffffffffffffffffffffffffff1661088b610c76565b73ffffffffffffffffffffffffffffffffffffffff16146108e1576040517f08c379a00000000000000000000000000000000000000000000000000000000081526004016108d890611ea2565b60405180910390fd5b600460058111156108f5576108f46121f9565b5b600860009054906101000a900460ff166005811115610917576109166121f9565b5b14610957576040517f08c379a000000000000000000000000000000000000000000000000000000000815260040161094e90611de2565b60405180910390fd5b600080600090505b6007805490508110156109dc57816007828154811061098157610980612257565b5b90600052602060002090600302016002015411156109c957600781815481106109ad576109ac612257565b5b9060005260206000209060030201600201549150806006819055505b80806109d490612181565b91505061095f565b506005600860006101000a81548160ff02191690836005811115610a0357610a026121f9565b5b02179055507f0e5e95ff8725ab3e7a4b6b59998a4c344c2aa8d1485f5e60cb7f337768e6134760405160405180910390a150565b60606007805480602002602001604051908101604052809291908181526020016000905b82821015610b335783829060005260206000209060030201604051806060016040529081600082018054610a8e9061211e565b80601f0160208091040260200160405190810160405280929190818152602001828054610aba9061211e565b8015610b075780601f10610adc57610100808354040283529160200191610b07565b820191906000526020600020905b815481529060010190602001808311610aea57829003601f168201915b505050505081526020016001820154815260200160028201548152505081526020019060010190610a5b565b50505050905090565b610b4461174c565b73ffffffffffffffffffffffffffffffffffffffff16610b62610c76565b73ffffffffffffffffffffffffffffffffffffffff1614610bb8576040517f08c379a0000000000000000000000000000000000000000000000000000000008152600401610baf90611ea2565b60405180910390fd5b600073ffffffffffffffffffffffffffffffffffffffff1660008054906101000a900473ffffffffffffffffffffffffffffffffffffffff1673ffffffffffffffffffffffffffffffffffffffff167f8be0079c531659141344cd1fd0a4f28419497f9722a3daafe3b4186f6b6457e060405160405180910390a360008060006101000a81548173ffffffffffffffffffffffffffffffffffffffff021916908373ffffffffffffffffffffffffffffffffffffffff160217905550565b60008060009054906101000a900473ffffffffffffffffffffffffffffffffffffffff16905090565b610ca761174c565b73ffffffffffffffffffffffffffffffffffffffff16610cc5610c76565b73ffffffffffffffffffffffffffffffffffffffff1614610d1b576040517f08c379a0000000000000000000000000000000000000000000000000000000008152600401610d1290611ea2565b60405180910390fd5b60016005811115610d2f57610d2e6121f9565b5b600860009054906101000a900460ff166005811115610d5157610d506121f9565b5b14610d5b57600080fd5b60015481610d699190612019565b6002819055506002600860006101000a81548160ff02191690836005811115610d9557610d946121f9565b5b02179055507f240cb87b2e4df4c318e72bd714d45a9cad60249e883ff56b1fffd83a4595a8fa60405160405180910390a17f0a97a4ee45751e2abf3e4fc8946939630b11b371ea8ae39ccdc3056e98f5cc3f60016002604051610df9929190611d57565b60405180910390a150565b60036005811115610e1857610e176121f9565b5b600860009054906101000a900460ff166005811115610e3a57610e396121f9565b5b14610e7a576040517f08c379a0000000000000000000000000000000000000000000000000000000008152600401610e7190611dc2565b60405180910390fd5b60011515600960003373ffffffffffffffffffffffffffffffffffffffff1673ffffffffffffffffffffffffffffffffffffffff16815260200190815260200160002060000160009054906101000a900460ff16151514610f10576040517f08c379a0000000000000000000000000000000000000000000000000000000008152600401610f0790611e42565b60405180910390fd5b60008110158015610f25575060078054905081105b610f64576040517f08c379a0000000000000000000000000000000000000000000000000000000008152600401610f5b90611da2565b60405180910390fd5b60001515600960003373ffffffffffffffffffffffffffffffffffffffff1673ffffffffffffffffffffffffffffffffffffffff16815260200190815260200160002060000160029054906101000a900460ff16151514610ffa576040517f08c379a0000000000000000000000000000000000000000000000000000000008152600401610ff190611e62565b60405180910390fd5b80600960003373ffffffffffffffffffffffffffffffffffffffff1673ffffffffffffffffffffffffffffffffffffffff168152602001908152602001600020600101819055506007818154811061105557611054612257565b5b9060005260206000209060030201600201600081548092919061107790612181565b91905055506001600960003373ffffffffffffffffffffffffffffffffffffffff1673ffffffffffffffffffffffffffffffffffffffff16815260200190815260200160002060000160026101000a81548160ff0219169083151502179055507f4d99b957a2bc29a30ebd96a7be8e68fe50a3c701db28a91436490b7d53870ca43382604051611108929190611cac565b60405180910390a150565b60096020528060005260406000206000915090508060000160009054906101000a900460ff16908060000160019054906101000a900460ff16908060000160029054906101000a900460ff16908060010154905084565b600060058081111561117f5761117e6121f9565b5b600860009054906101000a900460ff1660058111156111a1576111a06121f9565b5b146111ab57600080fd5b600654905090565b60065481565b6111c161174c565b73ffffffffffffffffffffffffffffffffffffffff166111df610c76565b73ffffffffffffffffffffffffffffffffffffffff1614611235576040517f08c379a000000000000000000000000000000000000000000000000000000000815260040161122c90611ea2565b60405180910390fd5b600073ffffffffffffffffffffffffffffffffffffffff168173ffffffffffffffffffffffffffffffffffffffff1614156112a5576040517f08c379a000000000000000000000000000000000000000000000000000000000815260040161129c90611e02565b60405180910390fd5b8073ffffffffffffffffffffffffffffffffffffffff1660008054906101000a900473ffffffffffffffffffffffffffffffffffffffff1673ffffffffffffffffffffffffffffffffffffffff167f8be0079c531659141344cd1fd0a4f28419497f9722a3daafe3b4186f6b6457e060405160405180910390a3806000806101000a81548173ffffffffffffffffffffffffffffffffffffffff021916908373ffffffffffffffffffffffffffffffffffffffff16021790555050565b61136a61174c565b73ffffffffffffffffffffffffffffffffffffffff16611388610c76565b73ffffffffffffffffffffffffffffffffffffffff16146113de576040517f08c379a00000000000000000000000000000000000000000000000000000000081526004016113d590611ea2565b60405180910390fd5b600360058111156113f2576113f16121f9565b5b600860009054906101000a900460ff166005811115611414576114136121f9565b5b14611454576040517f08c379a000000000000000000000000000000000000000000000000000000000815260040161144b90611e82565b60405180910390fd5b600354816114629190612019565b6004819055506004600860006101000a81548160ff0219169083600581111561148e5761148d6121f9565b5b02179055507fc379d349a6301baf50fb2f98d829f4ae10b1cdb7c66f4e4d8117302df7b8cd4c60405160405180910390a17f0a97a4ee45751e2abf3e4fc8946939630b11b371ea8ae39ccdc3056e98f5cc3f600360046040516114f2929190611d57565b60405180910390a150565b60011515600960003373ffffffffffffffffffffffffffffffffffffffff1673ffffffffffffffffffffffffffffffffffffffff16815260200190815260200160002060000160009054906101000a900460ff1615151461155d57600080fd5b60001515600960003373ffffffffffffffffffffffffffffffffffffffff1673ffffffffffffffffffffffffffffffffffffffff16815260200190815260200160002060000160029054906101000a900460ff161515146115bd57600080fd5b600160058111156115d1576115d06121f9565b5b600860009054906101000a900460ff1660058111156115f3576115f26121f9565b5b14611633576040517f08c379a000000000000000000000000000000000000000000000000000000000815260040161162a90611e22565b60405180910390fd5b60076040518060600160405280838152602001600780549050815260200160008152509080600181540180825580915050600190039060005260206000209060030201600090919091909150600082015181600001908051906020019061169b929190611754565b50602082015181600101556040820151816002015550506001600960003373ffffffffffffffffffffffffffffffffffffffff1673ffffffffffffffffffffffffffffffffffffffff16815260200190815260200160002060000160016101000a81548160ff0219169083151502179055507f92e393e9b54e2f801d3ea4beb0c5e71a21cc34a5d34b77d0fb8a3aa1650dc18f6007805490506040516117419190611f42565b60405180910390a150565b600033905090565b8280546117609061211e565b90600052602060002090601f01602090048101928261178257600085556117c9565b82601f1061179b57805160ff19168380011785556117c9565b828001600101855582156117c9579182015b828111156117c85782518255916020019190600101906117ad565b5b5090506117d691906117da565b5090565b5b808211156117f35760008160009055506001016117db565b5090565b600061180a61180584611f82565b611f5d565b905082815260208101848484011115611826576118256122ba565b5b6118318482856120dc565b509392505050565b600081359050611848816126a5565b92915050565b600082601f830112611863576118626122b5565b5b81356118738482602086016117f7565b91505092915050565b60008135905061188b816126bc565b92915050565b6000602082840312156118a7576118a66122c4565b5b60006118b584828501611839565b91505092915050565b6000602082840312156118d4576118d36122c4565b5b600082013567ffffffffffffffff8111156118f2576118f16122bf565b5b6118fe8482850161184e565b91505092915050565b60006020828403121561191d5761191c6122c4565b5b600061192b8482850161187c565b91505092915050565b60006119408383611c23565b905092915050565b6119518161206f565b82525050565b600061196282611fc3565b61196c8185611fe6565b93508360208202850161197e85611fb3565b8060005b858110156119ba578484038952815161199b8582611934565b94506119a683611fd9565b925060208a01995050600181019050611982565b50829750879550505050505092915050565b6119d581612081565b82525050565b6119e4816120ca565b82525050565b60006119f582611fce565b6119ff8185611ff7565b9350611a0f8185602086016120eb565b611a18816122c9565b840191505092915050565b6000611a2e82611fce565b611a388185612008565b9350611a488185602086016120eb565b611a51816122c9565b840191505092915050565b6000611a69602383612008565b9150611a74826122da565b604082019050919050565b6000611a8c604a83612008565b9150611a9782612329565b606082019050919050565b6000611aaf602483612008565b9150611aba8261239e565b604082019050919050565b6000611ad2602683612008565b9150611add826123ed565b604082019050919050565b6000611af5602083612008565b9150611b008261243c565b602082019050919050565b6000611b18602183612008565b9150611b2382612465565b604082019050919050565b6000611b3b602d83612008565b9150611b46826124b4565b604082019050919050565b6000611b5e603e83612008565b9150611b6982612503565b604082019050919050565b6000611b81602083612008565b9150611b8c82612552565b602082019050919050565b6000611ba4602083612008565b9150611baf8261257b565b602082019050919050565b6000611bc7602f83612008565b9150611bd2826125a4565b604082019050919050565b6000611bea602983612008565b9150611bf5826125f3565b604082019050919050565b6000611c0d602383612008565b9150611c1882612642565b604082019050919050565b60006060830160008301518482036000860152611c4082826119ea565b9150506020830151611c556020860182611c73565b506040830151611c686040860182611c73565b508091505092915050565b611c7c816120c0565b82525050565b611c8b816120c0565b82525050565b6000602082019050611ca66000830184611948565b92915050565b6000604082019050611cc16000830185611948565b611cce6020830184611c82565b9392505050565b60006020820190508181036000830152611cef8184611957565b905092915050565b6000608082019050611d0c60008301876119cc565b611d1960208301866119cc565b611d2660408301856119cc565b611d336060830184611c82565b95945050505050565b6000602082019050611d5160008301846119db565b92915050565b6000604082019050611d6c60008301856119db565b611d7960208301846119db565b9392505050565b60006020820190508181036000830152611d9a8184611a23565b905092915050565b60006020820190508181036000830152611dbb81611a5c565b9050919050565b60006020820190508181036000830152611ddb81611a7f565b9050919050565b60006020820190508181036000830152611dfb81611aa2565b9050919050565b60006020820190508181036000830152611e1b81611ac5565b9050919050565b60006020820190508181036000830152611e3b81611ae8565b9050919050565b60006020820190508181036000830152611e5b81611b0b565b9050919050565b60006020820190508181036000830152611e7b81611b2e565b9050919050565b60006020820190508181036000830152611e9b81611b51565b9050919050565b60006020820190508181036000830152611ebb81611b74565b9050919050565b60006020820190508181036000830152611edb81611b97565b9050919050565b60006020820190508181036000830152611efb81611bba565b9050919050565b60006020820190508181036000830152611f1b81611bdd565b9050919050565b60006020820190508181036000830152611f3b81611c00565b9050919050565b6000602082019050611f576000830184611c82565b92915050565b6000611f67611f78565b9050611f738282612150565b919050565b6000604051905090565b600067ffffffffffffffff821115611f9d57611f9c612286565b5b611fa6826122c9565b9050602081019050919050565b6000819050602082019050919050565b600081519050919050565b600081519050919050565b6000602082019050919050565b600082825260208201905092915050565b600082825260208201905092915050565b600082825260208201905092915050565b6000612024826120c0565b915061202f836120c0565b9250827fffffffffffffffffffffffffffffffffffffffffffffffffffffffffffffffff03821115612064576120636121ca565b5b828201905092915050565b600061207a826120a0565b9050919050565b60008115159050919050565b600081905061209b82612691565b919050565b600073ffffffffffffffffffffffffffffffffffffffff82169050919050565b6000819050919050565b60006120d58261208d565b9050919050565b82818337600083830152505050565b60005b838110156121095780820151818401526020810190506120ee565b83811115612118576000848401525b50505050565b6000600282049050600182168061213657607f821691505b6020821081141561214a57612149612228565b5b50919050565b612159826122c9565b810181811067ffffffffffffffff8211171561217857612177612286565b5b80604052505050565b600061218c826120c0565b91507fffffffffffffffffffffffffffffffffffffffffffffffffffffffffffffffff8214156121bf576121be6121ca565b5b600182019050919050565b7f4e487b7100000000000000000000000000000000000000000000000000000000600052601160045260246000fd5b7f4e487b7100000000000000000000000000000000000000000000000000000000600052602160045260246000fd5b7f4e487b7100000000000000000000000000000000000000000000000000000000600052602260045260246000fd5b7f4e487b7100000000000000000000000000000000000000000000000000000000600052603260045260246000fd5b7f4e487b7100000000000000000000000000000000000000000000000000000000600052604160045260246000fd5b600080fd5b600080fd5b600080fd5b600080fd5b6000601f19601f8301169050919050565b7f54686520696e64657820796f75206761766520646f65736e277420657869737460008201527f2e2e2e0000000000000000000000000000000000000000000000000000000000602082015250565b7f5468652073657373696f6e20666f7220766f74696e67206861736e277420737460008201527f6172746564206f72206861732066696e69736865642c2074727920616761696e60208201527f206e6578742074696d6500000000000000000000000000000000000000000000604082015250565b7f54686520766f74696e672073657373696f6e20686173206e6f7420656e64656460008201527f2079657400000000000000000000000000000000000000000000000000000000602082015250565b7f4f776e61626c653a206e6577206f776e657220697320746865207a65726f206160008201527f6464726573730000000000000000000000000000000000000000000000000000602082015250565b7f5468652074696d6520666f722070726f706f73616c732068617320656e646564600082015250565b7f596f7520617265206e6f7420616c6c6f77656420746f20766f7465206d616e2060008201527f2100000000000000000000000000000000000000000000000000000000000000602082015250565b7f596f75207468696e6b20796f752063616e20766f7465207477696365203f206c60008201527f6974746c65206368656174657200000000000000000000000000000000000000602082015250565b7f5468652073657373696f6e206861736e2765206576656e20737461727465642060008201527f736f20796f752063616e27742073746f70206974206f6276696f75736c790000602082015250565b7f4f776e61626c653a2063616c6c6572206973206e6f7420746865206f776e6572600082015250565b7f54686520766f7465206d7573742061646d697420766f74657273206669727374600082015250565b7f54686973206973206e6f742061206469637461747572652c207765206e65656460008201527f206d6f72652070726f706f73616c730000000000000000000000000000000000602082015250565b7f5468652070726f706f736974696f6e7320706572696f6420686173206e6f742060008201527f656e646564207965740000000000000000000000000000000000000000000000602082015250565b7f54686973206164647265737320697320616c72656164792077686974654c697360008201527f7465640000000000000000000000000000000000000000000000000000000000602082015250565b600681106126a2576126a16121f9565b5b50565b6126ae8161206f565b81146126b957600080fd5b50565b6126c5816120c0565b81146126d057600080fd5b5056fea264697066735822122065bd0789cdca3e6387db0cc0c1f91fa0a47bd2ccd4b83393de5ddec79cbed56664736f6c63430008050033",
  "immutableReferences": {},
  "source": "// SPDX-License-Identifier: MIT\r\n\r\npragma solidity ^0.8.0;\r\npragma abicoder v2;\r\n\r\nimport \"@openzeppelin/contracts/access/Ownable.sol\";\r\n\r\n///@title A simple voting smart contract\r\n///@author Kilian Mongey\r\n///@notice This contract was made for training only, no safety check were made\r\n\r\ncontract Voting is Ownable {\r\n    \r\n    ///@notice laying out our usefull variables\r\n    \r\n    uint startOfProposals;\r\n    uint endofProposals;\r\n    uint startOfVotes;\r\n    uint endOfVotes;\r\n    string public nameOfVote;\r\n    uint public winningProposalId;\r\n    \r\n     ///@notice we will create a mapping for our struct Voter\r\n    ///@ALYRA, I decided to add an extra bool hasProposed to be able to know if user proposed an idea \r\n    \r\n    struct Voter {\r\n        bool isRegistered;\r\n        bool hasProposed;\r\n        bool hasVoted;\r\n        uint votedProposalId;\r\n    }\r\n    \r\n     ///@notice here the easiest way I found to query informations was through an array, I decided to go with a proposal array\r\n    ///@ALYRA, I decided to add a uint proposalId to keep better track of the particular Id\r\n\r\n    struct Proposal {\r\n        string description;\r\n        uint proposalId;\r\n        uint voteCount;\r\n    }\r\n    \r\n    Proposal[] propositions;\r\n    \r\n    ///@notice we will keep track of our state using these enum\r\n    \r\n    enum WorkflowStatus {\r\n        RegisteringVoters,\r\n        ProposalsRegistrationStarted,\r\n        ProposalsRegistrationEnded,\r\n        VotingSessionStarted,\r\n        VotingSessionEnded,\r\n        VotesTallied\r\n    }\r\n    \r\n      WorkflowStatus state;\r\n    \r\n    ///@notice I decided to go with only 1 mapping here, even though I probably could've \r\n    /// made one for our proposal array, but I found it easier using an array \r\n    \r\n    mapping (address => Voter) public voters;\r\n\r\n    ///@notice Here is the list of our events\r\n    \r\n    event VoterRegistered(address voterAddress);\r\n    event ProposalsRegistrationStarted();\r\n    event ProposalsRegistrationEnded();\r\n    event ProposalRegistered(uint proposalId);\r\n    event VotingSessionStarted();\r\n    event VotingSessionEnded();\r\n    event Voted (address voter, uint proposalId);\r\n    event VotesTallied();\r\n    event WorkflowStatusChange(WorkflowStatus previousStatus, WorkflowStatus newStatus);\r\n    \r\n    ///@notice Only our contract creator will be allowed to add new addresses(users)\r\n    ///@dev We then require that the address isn't already in our list,\r\n    \r\n    function addToWhiteList(address _address) public onlyOwner {\r\n        \r\n        require(voters[_address].isRegistered == false, \"This address is already whiteListed\");\r\n        \r\n        voters[_address].isRegistered = true;\r\n        \r\n        emit VoterRegistered(_address);\r\n    }\r\n    \r\n    ///@notice this is our function to start the proposal phase\r\n    /// we want the admin to be in control so he can choose when to start at any point in time\r\n    \r\n    function startProposals(string memory _nameOfVote) public onlyOwner {\r\n        \r\n        require(state == WorkflowStatus.RegisteringVoters, \"The vote must admit voters first\");\r\n        \r\n        nameOfVote = _nameOfVote;\r\n        startOfProposals = block.timestamp;\r\n        state = WorkflowStatus.ProposalsRegistrationStarted;\r\n        \r\n        emit ProposalsRegistrationStarted();\r\n        \r\n    }\r\n    \r\n     ///@notice same here our admin has all the rights, he can choose to end the proposal period whenever he wants\r\n    ///!!ToThinkOf!! maybe implementing a require(at least 1 hour of proposals)\r\n    /// since this contract is for testing better to not lock our timer(more flexibility)\r\n    \r\n    function endProposals(uint _endofProposals) public onlyOwner {\r\n        \r\n        require(state == WorkflowStatus.ProposalsRegistrationStarted);\r\n        // require(_endofProposals > 1 hours, \"Admin should at least leave one hour for every one registered to propose\");\r\n        \r\n        endofProposals = _endofProposals + startOfProposals;\r\n        state = WorkflowStatus.ProposalsRegistrationEnded;\r\n        \r\n        emit ProposalsRegistrationEnded();\r\n        emit WorkflowStatusChange(WorkflowStatus.ProposalsRegistrationStarted, WorkflowStatus.ProposalsRegistrationEnded);\r\n    }\r\n    \r\n     ///@notice This is a helper function, first for me , \r\n    ///then it also helps our user to check the state of the contract/votingProcess\r\n    \r\n    function getState() public view returns(WorkflowStatus) {\r\n      return state;   \r\n    }\r\n    \r\n    ///@notice Before allowing to vote we want to be sure the msg.sender has the right to propose\r\n    /// check that he hasn't proposed yet\r\n    /// check that the state for our contract is set to proposal started\r\n    ///@dev we will push our new propositions with the description, id and voteCount\r\n    ///@dev then we initiate the new state of our msg.sender to hasProposed = true \r\n    ///!!ToSee!! maybe it would've been a better choice using a mapping here \r\n    \r\n    function proposals(string memory _description) public {\r\n        \r\n        require(voters[msg.sender].isRegistered == true);\r\n        require(voters[msg.sender].hasVoted == false);\r\n        require(state == WorkflowStatus.ProposalsRegistrationStarted, \"The time for proposals has ended\");\r\n        \r\n        propositions.push(Proposal(_description, propositions.length, 0));\r\n        voters[msg.sender].hasProposed = true;\r\n        \r\n        emit ProposalRegistered(propositions.length);\r\n        \r\n    }\r\n    \r\n    ///@notice The constructor of the Smart contract will once again have the full control of the voting system\r\n    /// he can initiate it when he pleases\r\n    ///!!improvementPossible!! make the voting period a minimum of xTime\r\n    ///@dev we require that the current state == proposalRegistrationEnded\r\n    /// also we need to make sure that there is at least 2 proposals before starting a vote\r\n    /// We can then initiate the voting session, and change our state\r\n    \r\n    function startVoting() public onlyOwner {\r\n        \r\n        require(state == WorkflowStatus.ProposalsRegistrationEnded, \"The propositions period has not ended yet\");\r\n        require(propositions.length >= 1, \"This is not a dictature, we need more proposals\");\r\n        \r\n        startOfVotes = block.timestamp;\r\n        state = WorkflowStatus.VotingSessionStarted;\r\n        \r\n        emit VotingSessionStarted();\r\n        emit WorkflowStatusChange(WorkflowStatus.ProposalsRegistrationEnded, WorkflowStatus.VotingSessionStarted);\r\n    }\r\n    \r\n    ///@notice The constructor will be able to stop the votingSession at any point in time\r\n    /// We obviously need to make sure that the state == VotingSessionStarted\r\n    ///@dev The owner will be able to program a timer to end the voting session\r\n    /// we then initiate our state to VotingSessionEnded\r\n    \r\n    function stopVotes(uint _timeToStopVotes) public onlyOwner {\r\n        \r\n        require(state == WorkflowStatus.VotingSessionStarted, \"The session hasn'e even started so you can't stop it obviously\");\r\n        //require(_timeToStopVotes > 1 hours, \"The voting period should at leat last one hour\");\r\n        \r\n        endOfVotes = _timeToStopVotes + startOfVotes;\r\n        state = WorkflowStatus.VotingSessionEnded;\r\n        \r\n        emit VotingSessionEnded();\r\n        emit WorkflowStatusChange(WorkflowStatus.VotingSessionStarted, WorkflowStatus.VotingSessionEnded);\r\n        \r\n    }\r\n    \r\n    ///@notice The fun part start, we will authorize our isRegistered users to vote for their favorite proposal\r\n    ///@dev We need to make sur of a few things, our state must be == to VotingSessionStarted, the msg.sender == isRegistered\r\n    /// the input from the user must be a valid index number, and finally the msg.sender can only vote once\r\n    ///@dev we will administrate our vote to _proposalNumber that will give it to our votedProposalId\r\n    /// then we incremente voteCount by one, and finally we set hasVoted to true\r\n    \r\n    function votingTimeBaby(uint _proposalNumber) public {\r\n        \r\n        require(state == WorkflowStatus.VotingSessionStarted, \"The session for voting hasn't started or has finished, try again next time\");\r\n        require(voters[msg.sender].isRegistered == true, \"You are not allowed to vote man !\");\r\n        require(_proposalNumber >= 0 && _proposalNumber < propositions.length, \"The index you gave doesn't exist...\");\r\n        require(voters[msg.sender].hasVoted == false, \"You think you can vote twice ? little cheater\");\r\n        \r\n        voters[msg.sender].votedProposalId = _proposalNumber;\r\n        propositions[_proposalNumber].voteCount++;\r\n        voters[msg.sender].hasVoted = true;\r\n        \r\n        emit Voted(msg.sender, _proposalNumber);\r\n        \r\n    }\r\n    \r\n    ///@notice creating a helper function(for remix) to find our proposals[]\r\n    \r\n     function getProposals() public view returns(Proposal[] memory) {\r\n        return propositions;\r\n    }\r\n    \r\n    ///@notice Here we will use a for loop to iterate through our voteCount and get the voteCount who has the most votes\r\n    ///@dev Firstly make sure that the voting session has ended.\r\n    ///@dev Seeting a counter to iterate = winningVoteCount\r\n    ///@dev we then make sure to change our state\r\n    \r\n    \r\n   function winningProposal() public onlyOwner {\r\n       \r\n       require(state == WorkflowStatus.VotingSessionEnded, \"The voting session has not ended yet\");\r\n       \r\n        uint winningVoteCount;\r\n    \r\n            for (uint i = 0; i < propositions.length; i ++) {\r\n        \r\n              if (propositions[i].voteCount > winningVoteCount) {\r\n                winningVoteCount = propositions[i].voteCount;\r\n                winningProposalId = i;\r\n        \r\n               }\r\n      \r\n            }\r\n            \r\n            state = WorkflowStatus.VotesTallied;\r\n            emit VotesTallied();\r\n            \r\n    }\r\n    \r\n     ///@notice We then set our indexWinner to the public var \"winningProposalId\" so everyOne can see the winner\r\n    \r\n    function showWinner() public view returns(uint) {\r\n        \r\n        require(state == WorkflowStatus.VotesTallied);\r\n        \r\n        return  winningProposalId;\r\n    }\r\n\r\n    \r\n}",
  "sourcePath": "C:/Users/kilia/OneDrive/Bureau/reactWithSolidity/defiAlyraReact/contracts/Voting.sol",
  "compiler": {
    "name": "solc",
    "version": "0.8.5+commit.a4f2e591.Emscripten.clang"
  },
  "schemaVersion": "3.4.1",
  "updatedAt": "2021-06-17T18:25:47.333Z",
  "devdoc": {
    "author": "Kilian Mongey",
    "kind": "dev",
    "methods": {
      "addToWhiteList(address)": {
        "details": "We then require that the address isn't already in our list,"
      },
      "owner()": {
        "details": "Returns the address of the current owner."
      },
      "proposals(string)": {
        "details": "we will push our new propositions with the description, id and voteCountthen we initiate the new state of our msg.sender to hasProposed = true  !!ToSee!! maybe it would've been a better choice using a mapping here "
      },
      "renounceOwnership()": {
        "details": "Leaves the contract without owner. It will not be possible to call `onlyOwner` functions anymore. Can only be called by the current owner. NOTE: Renouncing ownership will leave the contract without an owner, thereby removing any functionality that is only available to the owner."
      },
      "startVoting()": {
        "details": "we require that the current state == proposalRegistrationEnded also we need to make sure that there is at least 2 proposals before starting a vote We can then initiate the voting session, and change our state"
      },
      "stopVotes(uint256)": {
        "details": "The owner will be able to program a timer to end the voting session we then initiate our state to VotingSessionEnded"
      },
      "transferOwnership(address)": {
        "details": "Transfers ownership of the contract to a new account (`newOwner`). Can only be called by the current owner."
      },
      "votingTimeBaby(uint256)": {
        "details": "We need to make sur of a few things, our state must be == to VotingSessionStarted, the msg.sender == isRegistered the input from the user must be a valid index number, and finally the msg.sender can only vote oncewe will administrate our vote to _proposalNumber that will give it to our votedProposalId then we incremente voteCount by one, and finally we set hasVoted to true"
      },
      "winningProposal()": {
        "details": "Firstly make sure that the voting session has ended.Seeting a counter to iterate = winningVoteCountwe then make sure to change our state"
      }
    },
    "title": "A simple voting smart contract",
    "version": 1
  },
  "userdoc": {
    "events": {
      "VoterRegistered(address)": {
        "notice": "Here is the list of our events"
      }
    },
    "kind": "user",
    "methods": {
      "addToWhiteList(address)": {
        "notice": "Only our contract creator will be allowed to add new addresses(users)"
      },
      "endProposals(uint256)": {
        "notice": "same here our admin has all the rights, he can choose to end the proposal period whenever he wants !!ToThinkOf!! maybe implementing a require(at least 1 hour of proposals) since this contract is for testing better to not lock our timer(more flexibility)"
      },
      "getProposals()": {
        "notice": "creating a helper function(for remix) to find our proposals[]"
      },
      "getState()": {
        "notice": "This is a helper function, first for me ,  then it also helps our user to check the state of the contract/votingProcess"
      },
      "proposals(string)": {
        "notice": "Before allowing to vote we want to be sure the msg.sender has the right to propose check that he hasn't proposed yet check that the state for our contract is set to proposal started"
      },
      "showWinner()": {
        "notice": "We then set our indexWinner to the public var \"winningProposalId\" so everyOne can see the winner"
      },
      "startProposals(string)": {
        "notice": "this is our function to start the proposal phase we want the admin to be in control so he can choose when to start at any point in time"
      },
      "startVoting()": {
        "notice": "The constructor of the Smart contract will once again have the full control of the voting system he can initiate it when he pleases !!improvementPossible!! make the voting period a minimum of xTime"
      },
      "stopVotes(uint256)": {
        "notice": "The constructor will be able to stop the votingSession at any point in time We obviously need to make sure that the state == VotingSessionStarted"
      },
      "voters(address)": {
        "notice": "I decided to go with only 1 mapping here, even though I probably could've  made one for our proposal array, but I found it easier using an array "
      },
      "votingTimeBaby(uint256)": {
        "notice": "The fun part start, we will authorize our isRegistered users to vote for their favorite proposal"
      },
      "winningProposal()": {
        "notice": "Here we will use a for loop to iterate through our voteCount and get the voteCount who has the most votes"
      }
    },
    "notice": "This contract was made for training only, no safety check were made",
    "version": 1
  }
}